:1000000077C0000093C0000091C000008FC00000C6
:100010008DC0000012C7000058C700009EC7000036
:1000200085C0000083C0000081C000007FC00000C8
:100030007DC000007BC0000079C0000077C00000D8
:10004000D0C3000073C000002CC600006FC00000C9
:100050006DC000006BC0000069C0000067C00000F8
:1000600065C0000063C0000061C000005FC0000008
:100070005DC000005BC000009EC6000057C00000CD
:1000800055C0000053C0000051C00000CB03D8038E
:10009000D803D803C703D803D803D803D803D80399
:1000A000CF03D803D803D803D803D803D303D70387
:1000B000D803D803D803D803D803D803D803D80368
:1000C000D803D803D803D803D803D803CB03D80365
:1000D000D803D803C703D803D803D803D803D80359
:1000E000CF03D803D803D803D803D803D303D70347
:1000F00011241FBECFEFD0E1DEBFCDBF12E0A0E0E4
:10010000B1E0E2E7F9E100E00BBF02C007900D9219
:10011000A839B107D9F724E0A8E9B2E001C01D92DF
:10012000A135B207E1F703D50C94B70C69CFBF989E
:100130000895FC0126B381E090E002C0880F991F6A
:100140006A95E2F730E082239323892BA9F0DF013F
:10015000A856BD4F8C91811125C08091AE0290911F
:10016000AF026CE370E00E94C0090097F1F4E8561A
:10017000FD4F21E020830895DF01A856BD4F8C91EB
:100180008130B1F48091AE029091AF026CE370E0E7
:100190000E94C009892B79F4E856FD4F108281E056
:1001A00090E0089580E090E0089580E090E0089568
:1001B00080E090E0089580E090E00895139A80E454
:1001C00080938B008AE080938A0010928C001092BA
:1001D0008700109286000895CF93DF93CDB7DEB7E6
:1001E0002C970FB6F894DEBF0FBECDBF86E0E4E1DA
:1001F000F1E0DE01119601900D928A95E1F786E01B
:10020000EAE1F1E0DE01179601900D928A95E1F79F
:100210008091A502811138C0E0919A02F0E0EE0FC2
:10022000FF1FEC0FFD1F87819085892B19F4109219
:100230009A022AC0E0919A02F0E0EE0FFF1F81E0DF
:1002400090E08C0F9D1FE80FF91F808191819093A2
:1002500087008093860081E08093A502E0919A0256
:10026000F0E0EE0FFF1F81E090E08C0F9D1FE80F84
:10027000F91F868197819093A2028093A1028091B9
:100280009A028F5F80939A022C960FB6F894DEBF85
:100290000FBECDBFDF91CF910895CF93DF93CDB740
:1002A000DEB7C454D1400FB6F894DEBF0FBECDBF49
:1002B00082EAE0E2F1E0DE01119601900D928A956A
:1002C000E1F782EAE2ECF1E0DE01AD55BF4F0190CB
:1002D0000D928A95E1F78091A502811138C0E091D5
:1002E0009902F0E0EE0FFF1F83EA90E08C0F9D1F54
:1002F000E80FF91F80819181892B19F410929902DE
:1003000026C0E0919902F0E0EE0FFF1FEC0FFD1FF9
:1003100081819281909387008093860081E0809311
:10032000A502E0919902F0E0EE0FFF1F83EA90E052
:100330008C0F9D1FE80FF91F808191819093A2027D
:100340008093A102809199028F5F80939902CC5B88
:10035000DE4F0FB6F894DEBF0FBECDBFDF91CF9159
:100360000895CF93DF93CDB7DEB72B970FB6F894F0
:10037000DEBF0FBECDBFAC019BE0E4E6F2E0DE01E4
:10038000119601900D929A95E1F7E5E6F0E09081E3
:100390009F60908320919B0230919C022130310517
:1003A000D1F01CF4232B41F043C02230310531F150
:1003B0002330310591F13CC0E5E6F0E080818E7F8D
:1003C0008083CA016AE070E0DBD7FE01E80FF91F05
:1003D000818185BB2DC0E5E6F0E080818D7F808343
:1003E0002AE030E0CA01B901CBD7CB01B901C8D7A7
:1003F000FE01E80FF91F818185BB1AC0E5E6F0E038
:1004000080818B7F8083CA0164E670E0B9D7FE01EA
:10041000E60FF71F818185BB0BC0E5E6F0E0808128
:10042000877F8083672B11F087E701C08DE685BB4E
:1004300080919B0290919C02019683709078992301
:1004400024F401978C6F9F6F019690939C02809388
:100450009B022B960FB6F894DEBF0FBECDBFDF9187
:10046000CF9108958FEF84BBE4E6F0E080818F6048
:10047000808315BA089580937000089584EA80936C
:100480007400E4E7F0E080818823ECF7089580931E
:10049000730084E880937400E4E7F0E080818823AF
:1004A000ECF70895CF93DF93D82FC62FE7DF8D2F7A
:1004B000EEDF8C2FECDF84E980937400DF91CF9125
:1004C0000895EF92FF920F931F93CF93DF9300D085
:1004D00000D0CDB7DEB7282F207F30E1839FC00149
:1004E0001124922F9D60998329602A83982F9D6003
:1004F0009B8389608C838E010F5F1F4F7E0185E097
:10050000E80EF11CF80161918F018EE4CBDF0E152E
:100510001F05C1F70F900F900F900F90DF91CF91B3
:100520001F910F91FF90EF900895EF92FF920F931C
:100530001F93CF93DF9300D000D0CDB7DEB7282F25
:10054000207F30E1839FC0011124922F9C6099830A
:1005500028602A83982F9C609B8388608C838E01FF
:100560000F5F1F4F7E0185E0E80EF11CF8016191DD
:100570008F018EE497DF0E151F05C1F70F900F90C6
:100580000F900F90DF91CF911F910F91FF90EF90FF
:10059000089580E197E26FDF2FEF80E792E021502E
:1005A00080409040E1F700C0000083E3BEDF82E3BB
:1005B000BCDF88E2BADF8CE0B8DF86E0B6DF81E03E
:1005C000B4DF8FE39CE90197F1F700C000000895C4
:1005D0000F931F93CF93FC018081882351F08F01EB
:1005E000C0E06FDFCF5FF801EC0FF11D808181115A
:1005F000F8CFCF911F910F91089581706F7090E4A3
:10060000899F600D1124862F80588FCF0895CF9336
:10061000DF93EA01F2DFCE01DBDFDF91CF910895B6
:100620008F929F92AF92BF92CF92DF92EF92FF9202
:100630000F931F93CF93DF93CDB7DEB7C655D10984
:100640000FB6F894DEBF0FBECDBF672B19F02AE7B7
:1006500032E002C025E732E046E0EFE6F2E0DE01FC
:10066000AF5ABF4F01900D924A95E1F79F938F9338
:100670003F932F938FE792E09F938F938E010F5FAD
:100680001F4F1F930F9398D6A80160E080E0BFDF53
:100690000F2EFDE88F2EF2E09F2EF02D0C5E1F4FE7
:1006A000CE018F5A9F4F6C010FB6F894DEBF0FBE7C
:1006B000CDBFE12CF12C0F2EF1E9AF2EF2E0BF2ED1
:1006C000F02DF701EE0FFF1FEB54FD4F808191815C
:1006D000F40121914F019F938F931F922F93BF920B
:1006E000AF921F930F9368D6F6016081F2E0CF0EB0
:1006F000D11C402F512F81E08ADF8FEFE81AF80AD2
:100700000C5E1F4F0FB6F894DEBF0FBECDBFF3E0F7
:10071000EF16F104B1F6CA5ADF4F0FB6F894DEBFF8
:100720000FBECDBFDF91CF911F910F91FF90EF9042
:10073000DF90CF90BF90AF909F908F900895E4E6A8
:10074000F0E0808180618083E5E6F0E080818F7E4B
:100750008083089567E070E080E090E0EADC892B18
:1007600049F049D27FDEEBDF81E090E09093A40274
:100770008093A302E091B4028E2F90E0FC01E2543A
:10078000F109E233F105A0F4EA5BFF4F0CC684EFF8
:1007900091E04FD20DC084EF91E059D209C08CEBAB
:1007A00092E063D205C08CEB92E06DD201C034D2EE
:1007B0008091AC029091AD02892B91F01092AD0224
:1007C0001092AC026091A3027091A4028AB59BB50D
:1007D000892B19F08AB59BB502C088B599B5C1CDF2
:1007E00008951F920F920FB60F9211242F933F93EB
:1007F0008F939F9386E082BF81E090E09093AD025B
:100800008093AC028091AE029091AF0201969093DA
:10081000AF028093AE028091AA029091AB02019642
:100820009093AB028093AA028091A8029091A902B2
:1008300001969093A9028093A8028091A502882333
:1008400011F18091A6029091A70201969093A702C0
:100850008093A6022091A6023091A7028091A10266
:100860009091A2022817390771F41092A5021092F4
:10087000A7021092A6021092A2021092A102109258
:100880008700109286009F918F913F912F910F903A
:100890000FBE0F901F90189586E082BF83B78460CB
:1008A00083BF87B7816087BF08958091B702909119
:1008B000B8024C97A4F18091B5029091B602459789
:1008C00054F08091B9029091BA02459724F08CEBD4
:1008D00092E0AFC108958091B5029091B60245971C
:1008E00054F48091B9029091BA02459724F084E8BB
:1008F00093E0C9C108958091B5029091B6024597E1
:1009000054F08091B9029091BA02459724F484E89A
:1009100093E0ABC1089588E592E099C10895809174
:10092000B7029091B8024C97BCF58091B7029091B4
:10093000B8020A978CF18091B5029091B602459762
:1009400054F48091B9029091BA02459724F084E85A
:1009500093E099C108958091B5029091B6024597B0
:1009600054F08091B9029091BA02459724F484E83A
:1009700093E07BC10895E5EBF2E020813181848131
:1009800095818217930724F484E893E06EC108955B
:1009900084E893E078C1089588E592E058C108950D
:1009A0008091AE029091AF02883C910574F1109253
:1009B000AF021092AE028AB59BB5892B21F488B59F
:1009C00099B5892BC9F08AB59BB5892B31F08AB5C9
:1009D0009BB56EE571E0C0D405C088B599B56EE5EC
:1009E00071E0BAD480919F029091A002680F791FA4
:1009F0007093A00260939F026091A3027091A40281
:100A000080919F029091A0020BDE8AB59BB5892B45
:100A100039F02AB53BB58FEF93E0821B930B06C0EC
:100A200028B539B58FEF93E0821B930B2091A80274
:100A30003091A9022817390798F01092A902109254
:100A4000A80281E090E020919D0230919E02232B2C
:100A500011F080E090E090939E0280939D020895B3
:100A60008091A8029091A9028F3F934024F01092A8
:100A7000A9021092A80208951092A5021092870070
:100A80001092860010929A02109299021092A70278
:100A90001092A6021092A2021092A10208959CDB6D
:100AA000C5D203DF8091AC029091AD02892B91F009
:100AB0001092AD021092AC026091A3027091A40258
:100AC0008AB59BB5892B19F08AB59BB502C088B54C
:100AD00099B547DC80919D0290919E02892B31F05F
:100AE000E5E6F0E080818061808305C0E5E6F0E026
:100AF00080818F7E808367E070E080E090E019DB8A
:100B0000892B41F01CDEB8DF82E090E09093A402D4
:100B10008093A3020895C0DE5DD06DD03AD178D124
:100B200064D205DB0CDE4ADB9DDC33CD0895F3DFB8
:100B300086E091E090934E0480934D04789430DFEA
:100B4000E091A302F091A402EE0FFF1FE050FF4FCF
:100B50000190F081E02D0995F2CF9FDB67D2A5DEF1
:100B60008091AC029091AD02892B91F01092AD0270
:100B70001092AC026091A3027091A4028AB59BB559
:100B8000892B19F08AB59BB502C088B599B5E9DB08
:100B900080919D0290919E02892B31F0E5E6F0E074
:100BA00080818061808305C0E5E6F0E080818F7EF2
:100BB000808367E070E080E090E0BBDA892B49F049
:100BC000AADF19BC18BC1BBC1ABC1092A40210925C
:100BD000A30208958EB583608EBD8FB582608FBDF0
:100BE0008EB588618EBD8FB5806A8FBD8FEF93E023
:100BF00097BD86BD089587B3806687BBE1E6F0E0C8
:100C000080818F608083E2E6F0E08081807F808356
:100C10008081896080830895E2E6F0E08081807FB2
:100C2000808380818F60808319BC18BC1BBC1ABC78
:100C300008959C01E2E6F0E09081907F908390819E
:100C40009960908339BD28BD3BBD2ABD08959C01A4
:100C5000E2E6F0E09081907F9083908196609083AF
:100C600039BD28BD3BBD2ABD08959C01E2E6F0E0F8
:100C70009081907F90839081996090831BBC1ABC77
:100C800039BD28BD08959C01E2E6F0E09081907F97
:100C900090839081996090833BBD2ABD19BC18BC9C
:100CA00008951F920F920FB60F9211240BB60F9258
:100CB0002F933F934F935F936F937F938F939F9364
:100CC000AF93BF93EF93FF93CF93DF931F92CDB773
:100CD000DEB78CB1898389818A3049F52091B202CF
:100CE0003091B302C90101969093B3028093B2028E
:100CF0008091B0029091B10248E2429FF001439F7F
:100D0000F00D1124E554FD4FE80FF91F108280917A
:100D1000B2029091B3026AE070E032D39093B302D2
:100D20008093B2021092B1021092B0021CC0609186
:100D3000B2027091B3028091B0029091B1029C0115
:100D40002F5F3F4F3093B1022093B002498158E2A8
:100D5000569F9001579F300D112425543D4FF901A6
:100D6000E80FF91F40830F90DF91CF91FF91EF9132
:100D7000BF91AF919F918F917F916F915F914F91B3
:100D80003F912F910F900BBE0F900FBE0F901F90B1
:100D90001895109290008FEC89B9599AE5E9F0E026
:100DA0008081866080838AB188698AB908955D9B55
:100DB000FECF8CB908951F920F920FB60F92112497
:100DC0000BB60F922F933F934F935F936F937F9345
:100DD0008F939F93AF93BF93EF93FF9380919C006A
:100DE0008093B4028091B402E2DFFF91EF91BF9152
:100DF000AF919F918F917F916F915F914F913F91B3
:100E00002F910F900BBE0F900FBE0F901F90189553
:100E1000109298008FEC80939900EBE9F0E08081CC
:100E200082608083EDE9F0E0808186608083EAE97A
:100E3000F0E080818869808308951F920F920FB639
:100E40000F9211240BB60F922F933F934F935F9302
:100E50006F937F938F939F93AF93BF93EF93FF9382
:100E60000C9B02C014BC1EC064B570E080E090E032
:100E700084D120E034E244E759E40BD220E030E0B2
:100E800040E854E406D220E034E244E75BE4DAD000
:100E900020E030E048E652E4D5D03CD17093B60271
:100EA0006093B502FF91EF91BF91AF919F918F91A8
:100EB0007F916F915F914F913F912F910F900BBE5A
:100EC0000F900FBE0F901F9018951F920F920FB6A4
:100ED0000F9211240BB60F922F933F934F935F9372
:100EE0006F937F938F939F93AF93BF93EF93FF93F2
:100EF0000D9B02C014BC1EC064B570E080E090E0A1
:100F00003CD120E034E244E759E4C3D120E030E0B2
:100F100040E854E4BED120E034E244E75BE492D000
:100F200020E030E048E652E48DD0F4D07093B8026F
:100F30006093B702FF91EF91BF91AF919F918F9115
:100F40007F916F915F914F913F912F910F900BBEC9
:100F50000F900FBE0F901F9018951F920F920FB613
:100F60000F9211240BB60F922F933F934F935F93E1
:100F70006F937F938F939F93AF93BF93EF93FF9361
:100F80000E9B02C014BC1EC064B570E080E090E00F
:100F9000F4D020E034E244E759E47BD120E030E0B3
:100FA00040E854E476D120E034E244E75BE44AD000
:100FB00020E030E048E652E445D0ACD07093BA026D
:100FC0006093B902FF91EF91BF91AF919F918F9183
:100FD0007F916F915F914F913F912F910F900BBE39
:100FE0000F900FBE0F901F9018958AB387608ABB31
:100FF00082B18F7882B98AB785618ABF85B58560ED
:1010000085BD89B7806789BF08958BB3887F8BBB07
:1010100085E08A95F1F700008BB387608BBB80E594
:101020008A95F1F78BB3887F8BBB08958091AA02D4
:101030009091AB02C2972CF01092AB021092AA02D0
:10104000E4CF08950CD0EBC0E3D040F0DAD030F01C
:1010500021F45F3F19F0CCC0511115C1CFC0F0D0C1
:1010600098F39923C9F35523B1F3951B550BBB276F
:10107000AA2762177307840738F09F5F5F4F220F1C
:10108000331F441FAA1FA9F333D00E2E3AF0E0E815
:1010900030D091505040E695001CCAF729D0FE2F61
:1010A00027D0660F771F881FBB1F261737074807F3
:1010B000AB07B0E809F0BB0B802DBF01FF279358A9
:1010C0005F4F2AF09E3F510568F092C0DCC05F3F41
:1010D000ECF3983EDCF3869577956795B795F79591
:1010E0009F5FC9F7880F911D9695879597F9089589
:1010F000E1E0660F771F881FBB1F62177307840725
:10110000BA0720F0621B730B840BBA0BEE1F88F733
:10111000E095089504D06894B111B5C0089598D0B1
:1011200088F09F5790F0B92F9927B751A0F0D1F0D0
:10113000660F771F881F991F1AF0BA95C9F712C05A
:10114000B13081F09FD0B1E008959CC0672F782F17
:101150008827B85F39F0B93FCCF3869577956795C6
:10116000B395D9F73EF490958095709561957F4F32
:101170008F4F9F4F0895E89409C097FB3EF49095D8
:101180008095709561957F4F8F4F9F4F9923A9F060
:10119000F92F96E9BB279395F695879577956795EF
:1011A000B795F111F8CFFAF4BB0F11F460FF1BC033
:1011B0006F5F7F4F8F4F9F4F16C0882311F096E9C6
:1011C00011C0772321F09EE8872F762F05C0662374
:1011D00071F096E8862F70E060E02AF09A95660F2D
:1011E000771F881FDAF7880F9695879597F90895E6
:1011F00097F99F6780E870E060E008959FEF80ECCA
:10120000089500240A94161617061806090608956C
:1012100000240A9412161306140605060895092ED2
:101220000394000C11F4882352F0BB0F40F4BF2B41
:1012300011F460FF04C06F5F7F4F8F4F9F4F089581
:1012400057FD9058440F551F59F05F3F71F0479577
:10125000880F97FB991F61F09F3F79F0879508955C
:10126000121613061406551FF2CF4695F1DF08C07B
:10127000161617061806991FF1CF86957105610598
:1012800008940895E894BB2766277727CB0197F940
:1012900008950BD0C4CFB5DF28F0BADF18F095233E
:1012A00009F0A6CFABCF1124EECFCADFA0F3959FF4
:1012B000D1F3950F50E0551F629FF001729FBB273D
:1012C000F00DB11D639FAA27F00DB11DAA1F649FE9
:1012D0006627B00DA11D661F829F2227B00DA11D9C
:1012E000621F739FB00DA11D621F839FA00D611D22
:1012F000221F749F3327A00D611D231F849F600D43
:10130000211D822F762F6A2F11249F5750408AF07B
:10131000E1F088234AF0EE0FFF1FBB1F661F771F07
:10132000881F91505040A9F79E3F510570F060CF43
:10133000AACF5F3FECF3983EDCF3869577956795EF
:10134000B795F795E7959F5FC1F7FE2B880F911D25
:101350009695879597F90895AA1BBB1B51E107C085
:10136000AA1FBB1FA617B70710F0A61BB70B881F35
:10137000991F5A95A9F780959095BC01CD010895C4
:1013800097FB072E16F4009406D077FD08D0E4DF13
:1013900007FC05D03EF4909581959F4F0895709578
:1013A00061957F4F0895EE0FFF1F0024001C0BBEB8
:1013B0000790F691E02D09940F931F93CF93DF933D
:1013C000CDB7DEB72E970FB6F894DEBF0FBECDBFF8
:1013D0000D891E8986E08C831A8309838FEF9FE72E
:1013E0009E838D83AE01475E5F4F6F89788DCE01FE
:1013F000019610D0EF81F885E00FF11F10822E9634
:101400000FB6F894DEBF0FBECDBFDF91CF911F9115
:101410000F9108952F923F924F925F926F927F9219
:101420008F929F92AF92BF92CF92DF92EF92FF92F4
:101430000F931F93CF93DF93CDB7DEB72B970FB6E4
:10144000F894DEBF0FBECDBF6C017B018A01FC01A9
:1014500017821682838181FFBFC1CE0101963C01B4
:10146000F6019381F70193FD859193FF81917F01AF
:10147000882309F4ADC1853239F493FD859193FF3A
:1014800081917F01853221F4B60190E0D6D1E8CF79
:10149000912C212C312CFFE1F315D8F08B3279F00F
:1014A00038F4803279F08332A1F4232D20611DC0FD
:1014B0008D3261F0803369F4232D216016C0832DB5
:1014C0008260382EE32DE4603E2E2AC0F32DF860B2
:1014D0001DC037FC2DC020ED280F2A3040F08E3281
:1014E000B9F436FC75C1232D2064322E19C036FEA6
:1014F00006C08AE0989E200D1124922E11C0EAE0C9
:101500002E9E200D1124222EF32DF0623F2E08C0B6
:101510008C3621F4832D8068382E02C0883641F441
:10152000F70193FD859193FF81917F018111B3CFE5
:10153000982F9F7D9554933028F40C5F1F4F9FE3A5
:1015400099830DC0833631F0833771F0833509F00C
:1015500055C020C0F801808189830E5F1F4F882409
:101560008394912C530112C02801F2E04F0E511CBC
:10157000F801A080B18036FE03C0692D70E002C082
:101580006FEF7FEFC5014ED14C018201F32DFF7744
:101590003F2E15C0280122E0420E511CF801A08008
:1015A000B18036FE03C0692D70E002C06FEF7FEF9F
:1015B000C5012DD14C01F32DF0683F2E820133FC83
:1015C00019C0822D90E088169906A0F4B60180E239
:1015D00090E033D12A94F5CFF50137FC859137FEA1
:1015E00081915F01B60190E028D121102A9421E079
:1015F000821A91088114910479F7E1C0843611F0C0
:10160000893639F5F80137FE07C060817181828122
:1016100093810C5F1F4F08C060817181072E000C01
:10162000880B990B0E5F1F4FF32DFF763F2E97FF10
:1016300009C090958095709561957F4F8F4F9F4F12
:10164000F0683F2E2AE030E0A30133D1882E8618BF
:1016500044C0853731F4232D2F7EB22E2AE030E0AE
:1016600025C0932D997FB92E8F36C1F018F4883597
:1016700079F0AEC0803719F0883721F0A9C0E92F82
:10168000E061BE2EB4FE0DC0FB2DF460BF2E09C07C
:1016900034FE0AC0292F2660B22E06C028E030E0B2
:1016A00005C020E130E002C020E132E0F801B7FEE1
:1016B00007C060817181828193810C5F1F4F06C0DA
:1016C0006081718180E090E00E5F1F4FA301F1D037
:1016D000882E8618FB2DFF773F2E36FE0DC0232D5A
:1016E0002E7FA22E891458F434FE0BC032FC09C0A0
:1016F000832D8E7EA82E05C0B82CA32C03C0B82C39
:1017000001C0B92CA4FE0FC0FE01E80DF11D8081BF
:10171000803321F49A2D997EA92E09C0A2FE06C01D
:10172000B394B39404C08A2D867809F0B394A3FCD3
:1017300010C0A0FE06C0B21480F4280C922C9B1896
:101740000DC0B21458F4B60180E290E076D0B394A4
:10175000F8CFB21418F42B1802C0982C212CA4FE38
:101760000FC0B60180E390E068D0A2FE16C0A1FCD5
:1017700003C088E790E002C088E590E0B6010CC0A5
:101780008A2D867851F0A1FE02C08BE201C080E272
:10179000A7FC8DE2B60190E050D0891430F4B60178
:1017A00080E390E04AD09A94F8CF8A94F301E80D50
:1017B000F11D8081B60190E040D08110F6CF22204B
:1017C00009F44ECEB60180E290E037D02A94F7CFEC
:1017D000F6018681978102C08FEF9FEF2B960FB69F
:1017E000F894DEBF0FBECDBFDF91CF911F910F9157
:1017F000FF90EF90DF90CF90BF90AF909F908F9031
:101800007F906F905F904F903F902F900895FC01D4
:101810000590615070400110D8F7809590958E0F1B
:101820009F1F0895FC016150704001900110D8F78E
:10183000809590958E0F9F1F08950F931F93CF93C0
:10184000DF93FB01238121FD03C08FEF9FEF2CC0AD
:1018500022FF16C0468157812481358142175307E4
:1018600044F4A081B1819D012F5F3F4F31832083DC
:101870008C93268137812F5F3F4F3783268314C097
:101880008B01EC01FB010084F185E02D0995892B8A
:10189000E1F6D80116968D919C91179701961796AF
:1018A0009C938E931697CE01DF91CF911F910F914C
:1018B0000895FA01AA27283051F1203181F1E894E6
:1018C0006F936E7F6E5F7F4F8F4F9F4FAF4FB1E033
:1018D0003ED0B4E03CD0670F781F891F9A1FA11D2E
:1018E000680F791F8A1F911DA11D6A0F711D811D2F
:1018F000911DA11D20D009F468943F912AE0269FF4
:1019000011243019305D3193DEF6CF010895462F52
:101910004770405D4193B3E00FD0C9F7F6CF462F33
:101920004F70405D4A3318F0495D31FD405241939C
:1019300002D0A9F7EACFB4E0A69597958795779559
:101940006795BA95C9F700976105710508959B01E0
:10195000AC010A2E06945795479537952795BA9569
:10196000C9F7620F731F841F951FA01D0895F89477
:02197000FFCFA7
:10197200AA034F05AD050000000200000000D706D3
:1019820000000000980531040000AA02AA0200002B
:10199200FC04BC03F403BC035303BC035303F6026D
:1019A200CC02F602700453035303BC03BC03BC0312
:1019B200F4037004F403BC030000FC04BC03F4034E
:1019C200BC035303BC035303F602CC02F6027004B9
:1019D20053035303BC03BC03BC03F4037004F403BA
:1019E200BC030000BC03F6027E02F6025303BC03F2
:1019F200F403BC035303BC03F4037004FC04BC03F0
:101A0200F6027E02F6025303BC03F403BC03530343
:101A1200FC04BC035303F602CC02F6027004530327
:101A22005303BC03BC03BC03F4037004F403BC0300
:101A3200302F55015501AA00AA005501AA00AA009B
:101A42005501AA00AA005501AA00AA005501AA0040
:101A5200AA005501AA00AA00AA0255015501550182
:101A6200AA00AA005501AA00AA005501AA00AA00CC
:101A72005501AA00AA005501AA00AA005501AA0010
:101A8200AA00AA025501AA00AA005501AA00AA00AA
:101A92005501AA00AA00AA00AA00AA00AA0055019C
:101AA200AA00AA005501AA00AA005501AA00AA008C
:101AB20055015501AA02AA025501AA00AA00550120
:101AC200AA00AA005501AA00AA005501AA00AA006C
:101AD200AA0200003F065B4F666D7D277F6F800183
:101AE2000006000B0053454C46004155544F00255B
:101AF2007320746F74616C3A2564636D004C4D52AF
:081B02000025632564200000AA
:00000001FF
